:1000000000308A00A8280000831606148610061106
:100010008611061283128610061186110612B22866
:100020002208003A03194228013A03194728033AE3
:1000300003194C28013A03195128073A0319562885
:10004000013A03195B28033A03196028013A03199E
:1000500065280F3A03196A28013A03196F28033AF1
:1000600003197428013A03197928073A03197E28DD
:10007000013A03198328033A03198828013A03191E
:100080008D28922886100611861106129228861451
:100090000611861106129228861006158611061280
:1000A00092288614061586110612922886100611CB
:1000B00086150612922886140611861506129228B5
:1000C00086100615861506129228861406158615C2
:1000D000061292288610061186110616922886149A
:1000E0000611861106169228861006158611061628
:1000F0009228861406158611061692288610061177
:10010000861506169228861406118615061692285C
:10011000861006158615061692288614061586156D
:1001200006169228BC282230840083130008031985
:10013000A7280130F800F701F70B9C28F80B9B2843
:100140004A30F700F70BA228A528800B9928BF2872
:1001500003081F39830083168E15073083129F0012
:1001600083130428A10121080F3C031CC128061891
:10017000A1012108A2001028FA30A2009328A10AA8
:06018000B328B228630061
:02400E00503F21
:00000001FF
;PIC16F628A
;CRC=5B5E  CREATED="01-abr.-23 20:10"
