:1000000000308A0019280000213084008313000882
:10001000031918280130F800F701F70B0D28F80B29
:100020000C284A30F700F70B13281628800B0A28F3
:10003000080003081F39830083168E1507308312CA
:100040009F0083138501013083168500831286018A
:100050000030831686008312051C34280230860681
:100060006430A10004204328051843286430A1000F
:10007000042005184128023086066430A1000420BF
:0A0080003928013086062C286300A1
:02400E00503F21
:00000001FF
;PIC16F628A
;CRC=E1DE  CREATED="01-abr.-23 15:52"
