:1000000000308A003F280000831605108312051077
:10001000831606108312061083168610831286102C
:100020008316061183120611831686118312861118
:1000300083160616831206128316861683128612FC
:1000400083160617831206138316861783128613E8
:100050008A114B2825308400000803193D280130FF
:10006000A100A001A00B3228A10B31284A30A0002A
:10007000A00B38283B28800B2F288A1166280308FC
:100080001F39830083161F149F141F159F110730FB
:100090009C0083120428A4012408033C031C752837
:1000A0000130A0002408A10003195A280310A00D54
:1000B000A10B562820088604061E60280514612816
:1000C0000510061A61280A30A5002A280130A00070
:1000D0002408A100031970280310A00DA10B6C289F
:0E00E0002008FF3A8605A40A4C284B2863002E
:02400E00313F40
:00000001FF
;PIC16F874A
;CRC=972A  CREATED="04-abr.-23 14:33"
