:1000000000308A00A828000083160610861006110A
:1000100086110612861683128610061186110612A4
:100020000610AC281208003A03194428013A0319B3
:100030004928033A03194E28013A03195328073A6D
:1000400003195828013A03195D28033A0319622855
:10005000013A031967280F3A03196C28013A03196A
:100060007128033A03197628013A03197B28073AC5
:1000700003198028013A03198528033A03198A28AD
:10008000013A03198F28942886100611861106124A
:1000900094288614061186110612942886100615D7
:1000A00086110612942886140615861106129428C5
:1000B00086100611861506129428861406118615D8
:1000C00006129428861006158615061294288614A2
:1000D0000615861506129428861006118611061636
:1000E0009428861406118611061694288610061583
:1000F000861106169428861406158611061694286D
:100100008610061186150616942886140611861583
:100110000616942886100615861506169428861449
:100120000615861506169428BF281230840000088C
:100130000319A72806308D008C018C0B9D288D0B90
:100140009C287B308C008C0BA328800B9A28C2281B
:1001500003081F3983000428910111080F3C031C78
:10016000C428861EBC28101CB82806141010BC28F1
:100170001018BC28061010141108920012283230F2
:0C01800092009528910AAD28AC2863007D
:02400E00F23F7F
:00000001FF
;PIC16F84A
;CRC=8229  CREATED="06-abr.-23 15:31"
