:1000000000308A009C280000831606148610061112
:1000100086110612861206138613831286100611A5
:1000200086110612861206138613A6282108003AA6
:1000300003193628013A03193E28033A03194628C2
:10004000013A03194E28073A03195628013A0319B1
:100050005E28033A03196628013A03196E280F3AFD
:1000600003197628013A03197E2886288614061576
:100070008615061686160617861386288610061518
:100080008615061286120613861386288614061510
:1000900086110616861606138617862886140615F8
:1000A00086150616861206138617862886100615EC
:1000B00086150612861206178617862886140611DC
:1000C00086150616861206178617862886140611C8
:1000D00086150616861606178617862886140615B0
:1000E00086150612861206138613862886140615B0
:1000F0008615061686160617861786288614061590
:10010000861506128612061786178628B228213011
:1001100084008313000803199B280130F800F701BD
:10012000F70B9028F80B8F284A30F700F70B96282A
:100130009928800B8D28B52803081F398300831662
:100140008E15073083129F0083130428061CB228E3
:100150002008093C031DAE28A001AF28A00A2008F2
:0E016000A10016286430A1008728A62863009D
:02400E00503F21
:00000001FF
;PIC16F628A
;CRC=0B9A  CREATED="02-abr.-23 16:08"
