:1000000000308A002328000083160615061083128C
:10001000061083168610831286102D282230840045
:1000200083130008031922280130F800F701F70BA9
:100030001728F80B16284A30F700F70B1D28202840
:10004000800B1428080003081F39830083168E15BF
:10005000073083129F0083130428061D412886144D
:1000600006100230A100FA30A2000E20A10B3328A6
:10007000861006140230A100FA30A2000E20A10B57
:060080003C282D2863005E
:02400E00503F21
:00000001FF
;PIC16F628A
;CRC=ADDE  CREATED="01-abr.-23 16:19"
