:1000000000308A00B72800008316051085100511FE
:1000100085118312051085100511851183160610B0
:10002000861006118611831206108610061186119D
:10003000831606168616061786178312C12822080D
:10004000003A03195128013A03195628033A0319B3
:100050005B28013A03196028073A03196528013A19
:1000600003196A28033A03196F28013A03197428FF
:100070000F3A03197928013A03197E28033A031924
:100080008328013A03198828073A03198D28013A71
:1000900003199228033A03199728013A03199C2857
:1000A000A1280510851005118511A12805148510BA
:1000B00005118511A1280510851405118511A128A8
:1000C0000514851405118511A12805108510051545
:1000D0008511A1280514851005158511A128051085
:1000E000851405158511A12805148514051585119C
:1000F000A1280510851005118515A1280514851066
:1001000005118515A1280510851405118515A1284F
:100110000514851405118515A128051085100515F0
:100120008515A1280514851005158515A12805102C
:10013000851405158515A128051485140515851543
:10014000A128080022308400831300080319B62870
:100150000130F800F701F70BAB28F80BAA284A305A
:10016000F700F70BB128B428800BA8280800030873
:100170001F39830083168E15073083129F00831367
:100180000428A1012108033C031C69290130F70060
:100190002108F8000319D0280310F70DF80BCC281C
:1001A00077088604061EDA28061DDA280130A20028
:1001B0001F201C29861EE228061DE2280230A2000C
:1001C0001F201C29061FEA28061DEA280330A2006A
:1001D0001F201C29061EF228861CF2280430A200CB
:1001E0001F201C29861EFA28861CFA280530A2002A
:1001F0001F201C29061F0229861C02290630A20086
:100200001F201C29061E0A29061C0A290730A200E5
:100210001F201C29861E1229061C12290830A20044
:100220001F201C29061F1A29061C1A290930A200A2
:100230001F201C29A2011F20061E2A290608F700DC
:100240002108F800031928290310F70CF80B2429BA
:1002500077181C29861E38290608F7002108F8009F
:10026000031936290310F70CF80B322977182A29BD
:10027000061F46290608F7002108F800031944293B
:100280000310F70CF80B402977183829861F5429DA
:100290000608F7002108F800031952290310F70C8B
:1002A000F80B4E29771846290A30A200A220013007
:1002B000F7002108F800031961290310F70DF80B66
:1002C0005D297708FF3A86050A30A200A220A10A1C
:0602D000C228C1286300F2
:02400E00503F21
:00000001FF
;PIC16F628A
;CRC=43FE  CREATED="04-abr.-23 15:22"
